:020000040800F2
:10000000B00600200101000821140008CD120008EC
:100010001D140008B3020008351900080000000094
:10002000000000000000000000000000891400082B
:10003000B7020008000000005D1400088B140008DF
:100040001B0100081B0100081B0100081B01000820
:100050001B0100081B0100081B0100081B01000810
:100060001B0100081B0100081B0100081B01000800
:100070001B0100081B0100081B0100081B010008F0
:100080001B0100081B0100081B0100081B010008E0
:100090001B0100081B0100081B0100081B010008D0
:1000A0001B0100081B0100081B0100081B010008C0
:1000B0001B0100081B0100081B0100081B010008B0
:1000C0001B0100081B0100081B0100081B010008A0
:1000D0001B01000841180008011900081B01000855
:1000E0001B0100081B0100081B010008DFF80CD0F1
:1000F00000F0BEF800480047BD190008B006002017
:100100000648804706480047FEE7FEE7FEE7FEE7B1
:10011000FEE7FEE7FEE7FEE7FEE7FEE7E514000880
:10012000ED000008202A04DB203A21FA02F0002129
:10013000704721FA02F3D040C2F1200291400843F7
:1001400019467047D2B201E000F8012B491EFBD2DC
:1001500070470022F6E710B513460A4604461946D2
:10016000FFF7F0FF204610BD0EB540F2334102917B
:100170000021CDE900110A460B4600F02AF803B031
:1001800000BDC1F30A5210B5C1F3130140F2FF33B1
:1001900041F480119A4201DA002010BD40F233434D
:1001A0009A42A2F2334203DC5242FFF7BBFF10BD7A
:1001B000904010BD10B5141E73F1000408DA401C05
:1001C00041F1000192185B411A4301D120F0010076
:1001D00010BD2DE9F04D92469B4611B1B1FA81F266
:1001E00002E0B0FA80F22032904600F053F8044664
:1001F0000F4640EA0A0041EA0B0153465A460843BB
:1002000013D0114653EA010019D0C8F140025046FC
:10021000FFF788FF05460E4650465946424600F015
:1002200039F8084305D0012004E020463946BDE8EE
:10023000F08D0020054346EAE0762C4337430A98C8
:100240006305E40AA0EB08000022FD0A44EA4754D3
:100250000A3002D500200146E9E70105101969417D
:10026000DDE9084500196941BDE8F04DA2E700004D
:10027000064C074D06E0E06840F0010394E80700F3
:1002800098471034AC42F6D3FFF734FFF01C000857
:10029000101D0008202A04DB203A00FA02F1002099
:1002A00070479140C2F1200320FA03F319439040B4
:1002B000704700BFFEE77047704710B504460CB9A1
:1002C000012010BD607920B900202071204600F087
:1002D00005F8012060710020F3E7000008B5094A25
:1002E000016891420DD100BF0749496941F04001C1
:1002F000054A51611146496901F04001009100BF72
:1003000000BF08BD003002400010024070B5044636
:10031000002594F82100022803D00420A0630125C1
:1003200048E02068006820F00E002168086020681E
:10033000006820F00100216808601F492068884299
:1003400001D1012026E01C4914312068884201D1E6
:1003500010201FE0184928312068884201D18015FB
:1003600018E015493C312068884201D1801411E021
:10037000114950312068884202D14FF4803009E0A1
:100380000D4964312068884202D14FF4801001E0A9
:100390004FF08070084908394860012084F8210036
:1003A00000BF002084F8200000BF606B10B1204621
:1003B000616B8847284670BD080002402DE9F84768
:1003C0000346002294466EE14FF0010808FA02F459
:1003D000D1F8008008EA0400A0427DD1DFF8DCA259
:1003E000D1F80480A8EB0A09D0453AD014DCB8F162
:1003F000030F50D009DCB8F1000F31D0B8F1010F74
:100400001CD0B8F1020F49D120E0B8F1110F18D07B
:10041000B8F1120F42D11EE0B9F5881F25D006DCD5
:10042000B9F5803F20D0B9F5801F37D11AE0B9F572
:10043000001F18D0B9F5041F30D117E0D1F80CC057
:100440002DE0D1F80C8008F1040C28E0D1F80C80E4
:1004500008F1080C23E0D1F80C8008F10C0C1EE028
:1004600000BF00BF00BF00BF00BF00BFD1F80880C1
:10047000B8F1000F02D14FF0040C0BE0D1F8088066
:10048000B8F1010F03D14FF0080C1C6102E04FF0EE
:10049000080C5C6103E04FF0000C00E000BF00BFFF
:1004A000FF2801D8984601E003F104084646FF28DA
:1004B00002D84FEA820803E0A2F108084FEA880850
:1004C0004746D6F800804FF00F0909FA07F928EAE5
:1004D00009080CFA07F900E088E048EA0908C6F8BC
:1004E0000080D1F8048008F08058B8F1805F7DD199
:1004F00000BFDFF8CC81D8F8188048F00108DFF899
:10050000C091C9F81880C846D8F8188008F00108CA
:10051000CDF8008000BF00BF4FEAB9384FEA92091A
:1005200058F829504FEA82784FEA18794FF00F08AF
:1005300008FA09F825EA0805DFF88881434502D161
:100540004FF0000816E0DFF88081434502D14FF0FC
:1005500001080FE0DFF87481434502D14FF0020833
:1005600008E0DFF86C81434502D14FF0030801E059
:100570004FF004084FEA82794FEA197908FA09F82E
:1005800048EA0505DFF84C814FEA920948F82950FE
:10059000D1F8048008F48038B8F5803F0AD1DFF83C
:1005A0003881D8F8008048EA0008DFF82C91C9F8B3
:1005B000008009E0DFF82081D8F8008028EA0008F0
:1005C000DFF81491C9F80080D1F8048008F40038ED
:1005D000B8F5003F10D1DFF8008108F10408D8F821
:1005E000008048EA0008DFF8F09000E05AE009F1E6
:1005F0000409C9F800800DE0DFF8DC8008F1040888
:10060000D8F8008028EA0008DFF8CC9009F1040946
:10061000C9F80080D1F8048008F48018B8F5801F6C
:100620000ED1DFF8B48008F10808D8F8008048EA55
:100630000008DFF8A49009F10809C9F800800DE06E
:10064000DFF8948008F10808D8F8008028EA00084C
:10065000DFF8849009F10809C9F80080D1F8048016
:1006600008F40018B8F5001F0ED1DFF86C8008F10F
:100670000C08D8F8008048EA0008DFF85C9009F11F
:100680000C09C9F800800DE0DFF84C8008F10C0877
:10069000D8F8008028EA0008DFF83C9009F10C093E
:1006A000C9F80080521CD1F8008028FA02F8B8F18D
:1006B000000F7FF489AEBDE8F8870000000011103C
:1006C0000010024000080140000C014000100140F1
:1006D0000014014008000140000401400AB101611A
:1006E00001E00B0403617047014800687047000097
:1006F00020000020034800680349097808440149A4
:1007000008607047200000202800002010B508482D
:10071000006840F0100006490860032000F0A8F8C7
:10072000002000F007F800F02BF8002010BD0000BA
:100730000020024070B504460E4800784FF47A71EC
:10074000B1FBF0F00C490968B1FBF0F5284600F068
:100750000BFC08B1012070BD102C07D200222146ED
:10076000501E00F047F80548046001E00120F2E760
:100770000020F0E7280000202C00002024000020AA
:1007800008B500BF1148806940F001000F49886139
:100790000846806900F00100009000BF00BF00BF64
:1007A0000846C06940F08050C8610846C06900F042
:1007B0008050009000BF00BF00BF0549486820F08E
:1007C000E06040F00070486000BF08BD00100240CB
:1007D0000000014001460846002809DB00F01F0325
:1007E00001229A4043099B0003F1E023C3F8002152
:1007F00000BF70472DE9F05F80460D461646002782
:1008000001F09AF8074639462A46334601F00700B8
:10081000C0F1070ABAF1040F02D94FF0040A01E04F
:10082000C0F1070AD14600F1040ABAF1070F02D25B
:100830004FF0000A01E0A0F1030AD4464FF0010A8C
:100840000AFA09FAAAF1010A0AEA020A0AFA0CFAF1
:100850004FF0010B0BFA0CFBABF1010B0BEA030B96
:100860004AEA0B042146404601F06EF8BDE8F09FCD
:1008700000BF00F00702064B19684FF6FF0319404E
:10088000044B0B4343EA0221014B196000BF704740
:100890000CED00E00000FA0570B504460D460CB9F9
:1008A000012070BD5A48006800F00700A8420ED22F
:1008B0005748006820F0070028435549086008465B
:1008C000006800F00700A84201D00120E9E7207885
:1008D00000F0020002281DD1207800F00400042856
:1008E00005D14C48406840F4E0604A4948602078AF
:1008F00000F00800082805D14648406840F46050E0
:10090000444948604348406820F0F000A16808432B
:1009100040494860207800F0010078B36068012801
:1009200006D13C48006800F4003090B90120B8E7D7
:100930006068022806D13748006800F0007040B9AE
:100940000120AEE73348006800F0020008B901203A
:10095000A7E73048406820F00300616808432D494C
:100960004860FFF7C1FE064609E0FFF7BDFE801BA9
:1009700041F28831884202D9032092E707E02548F6
:10098000406800F00C006168B0EB810FEDD12048A9
:10099000006800F00700A8420ED91D48006820F04A
:1009A000070028431A4908600846006800F007005D
:1009B000A84201D0012074E7207800F00400042848
:1009C00007D11448406820F4E060E1680843114909
:1009D0004860207800F00800082808D10D484068D9
:1009E00020F46050216940EAC1000A49486000F0E3
:1009F0003FF808494968C1F30311074A515CC840F0
:100A00000649086006480068FFF794FE002048E7A2
:100A10000020024000100240D81C00082C000020DA
:100A20002400002001480068704700002C000020CE
:100A300000B5FFF7F7FF04494968C1F30221034AF3
:100A4000515CC84000BD000000100240E81C0008D6
:100A500000B5FFF7E7FF04494968C1F3C221034A23
:100A6000515CC84000BD000000100240E81C0008B6
:100A7000F0B585B00FF26C0C9CE8E01001A8A0E87E
:100A8000E0101CA52D680095002100220023002401
:100A90000020194D696801F00C05F5B1042D02D054
:100AA000082D19D101E0154819E001ADC1F38346C5
:100AB000AC5D01F4803555B10F4D6D68C5F340450F
:100AC0001DF805200D4D6543B5FBF2F302E00C4D1A
:100AD00004FB05F3184602E000BF084800BF00BF52
:100AE00005B0F0BD02030405060708090A0B0C0D4A
:100AF0000E0F1010010200000010024000127A00D8
:100B000000093D00F8B504460CB90120F8BD207875
:100B100000F00100002878D0F848406800F00C0090
:100B200004280CD0F548406800F00C00082811D1CA
:100B3000F248406800F48030B0F5803F0AD1EF48B9
:100B4000006800F4003000285FD0606800285CD1A5
:100B50000120DBE700BF6068B0F5803F06D1E748C1
:100B6000006840F48030E549086028E0606858B9C2
:100B7000E248006820F48030E049086008460068D8
:100B800020F4802008601AE06068B0F5A02F0BD137
:100B9000DA48006840F48020D849086008460068B8
:100BA00040F4803008600AE0D448006820F48030C7
:100BB000D24908600846006820F48020086000BF21
:100BC000606888B1FFF790FD054606E0FFF78CFDF1
:100BD000401B642801D9032098E7C848006800F446
:100BE00000300028F2D010E0FFF77EFD054606E059
:100BF000FFF77AFD401B642801D9032086E7BF4830
:100C0000006800F400300028F2D1207800F00200E3
:100C1000022857D1B948406800F00C0050B1B748DD
:100C2000406800F00C00082818D1B448406800F46F
:100C3000803098B9B148006800F0020020B1206906
:100C4000012801D0012061E7AC48006820F0F800DD
:100C5000616940EAC100A949086033E02069E8B150
:100C60000120A7490860FFF73FFD054606E0FFF7B2
:100C70003BFD401B022801D9032047E79F4800683D
:100C800000F002000028F2D09C48006820F0F80034
:100C9000616940EAC1009949086013E00020984961
:100CA0000860FFF721FD054606E0FFF71DFD401B2C
:100CB000022801D9032029E79048006800F00200CB
:100CC0000028F2D1207800F0080008282DD1A06972
:100CD000B8B101208B490860FFF706FD054606E024
:100CE000FFF702FD401B022801D903200EE78348CD
:100CF000406A00F002000028F2D0012000F0B0FBB2
:100D000013E000207F490860FFF7EEFC054606E08F
:100D1000FFF7EAFC401B022801D90320F6E67748DA
:100D2000406A00F002000028F2D1207800F00400B0
:100D3000042873D100277148C06900F0805070B951
:100D400000BF6E48C06940F080506C49C8610846D9
:100D5000C06900F08050009000BF00BF01276A48C2
:100D6000006800F48070B0B96748006840F4807093
:100D700065490860FFF7B8FC054606E0FFF7B4FCDC
:100D8000401B642801D90320C0E65F48006800F4D6
:100D900080700028F2D000BFE068012806D15748D3
:100DA000006A40F001005549086227E0E06858B940
:100DB0005248006A20F00100504908620846006A63
:100DC00020F00400086219E0E06805280BD14B48C8
:100DD000006A40F00400494908620846006A40F091
:100DE000010008620AE04548006A20F0010043491A
:100DF00008620846006A20F00400086200BFE0684C
:100E0000A0B1FFF771FC054609E0FFF76DFC401B40
:100E100041F28831884202D9032077E622E0374840
:100E2000006A00F002000028EFD012E0FFF75CFC3F
:100E3000054608E0FFF758FC401B41F28831884224
:100E400001D9032062E62D48006A00F00200002864
:100E5000F0D1012F05D12948C06920F080502749E1
:100E6000C86100BFE069C8B32448406800F00C00C6
:100E7000082860D0E069022848D10020204908668F
:100E8000FFF732FC054606E0FFF72EFC401B022868
:100E900001D903203AE61948006800F000700028E4
:100EA000F2D1206AB0F5803F07D11448406820F4A1
:100EB0000030A168084311494860D4E9080108439B
:100EC0000E49496821F4741108430C494860012017
:100ED0000B490866FFF708FC054607E03DE0FFF711
:100EE00003FC401B022801D903200FE603480068D9
:100EF00000F000700028F2D02FE000000010024047
:100F00000000424280044242007000400020144928
:100F10000866FFF7E9FB054606E0FFF7E5FB401B27
:100F2000022801D90320F1E50E48006800F00070A6
:100F30000028F2D111E0E069012800D1E6E5094876
:100F4000466806F48031206A814204D106F47011AB
:100F5000606A814201D00120D8E50020D6E500007A
:100F6000000042420010024070B504462546681E4B
:100F7000B0F1807F01D301200FE0681E4FF0E02127
:100F800048610F214FF0FF3000F0DEFC00204FF0F1
:100F9000E021886107200861002070BD70470000D3
:100FA0002DE9F0470446206805682068C668206877
:100FB00047694FF00008C14605F00F08B8F1000F6F
:100FC0000AD105F0200038B106F0200020B12046FB
:100FD00000F0DEFABDE8F087B8F1000F6DD007F041
:100FE000010018B906F49070002866D005F00100E1
:100FF00030B106F4807018B1E06B40F00100E0639E
:1010000005F0040030B107F0010018B1E06B40F0CA
:101010000200E06305F0020030B107F0010018B1F2
:10102000E06B40F00400E06305F0080030B107F029
:10103000010018B1E06B40F00800E063E06B68B3BA
:1010400005F0200028B106F0200010B1204600F085
:101050009FFA20684069C0F38019E06B00F0080037
:1010600010B9B9F1000F22D0204600F071FA2068C3
:10107000406900F04000B0B12068406920F04000B5
:1010800021684861606B50B11748616B4863606BC1
:10109000FFF73CF910B1606B416B88470CE02046CC
:1010A000FFF77CFF08E02046FFF778FF04E02046CA
:1010B000FFF774FF0020E0638CE705F0800030B19B
:1010C00006F0800018B1204600F086FB82E705F0AC
:1010D000400030B106F0400018B1204600F048FA58
:1010E00078E700BF76E700003D15000810B504461C
:1010F0000CB9012010BDA06900B100E000BF94F858
:10110000390028B9002084F83800204600F028F87B
:10111000242084F839002068C06820F40050216839
:10112000C860204600F088FA2068006920F49040EA
:10113000216808612068406920F02A002168486120
:101140002068C06840F400502168C8600020E06357
:10115000202084F8390084F83A000020CAE7000013
:1011600010B586B0044600200290039004900590CC
:101170003B492068884237D100BF3A48806940F433
:101180008040384988610846806900F480400190B9
:1011900000BF00BF00BF0846806940F004008861BE
:1011A0000846806900F00400019000BF00BF4815A8
:1011B0000290022003900320059002A92A48FFF71D
:1011C000FDF84FF48060029000200390049002A983
:1011D0002548FFF7F3F8002211462520FFF70AFB08
:1011E0002520FFF7F7FA39E020492068884235D1F9
:1011F00000BF1C48C06940F400301A49C861084665
:10120000C06900F40030019000BF00BF00BF084675
:10121000806940F0040088610846806900F004009D
:10122000019000BF00BF0420029002200390032021
:10123000059002A90C48FFF7C1F808200290002091
:101240000390049002A90848FFF7B8F8002211465D
:101250002620FFF7CFFA2620FFF7BCFA06B010BD14
:1012600000380140001002400008014000440040E6
:10127000704710B5034693F83900202823D101B1F7
:101280000AB9012010BD00BF93F83800012801D130
:101290000220F7E7012083F8380000BF19629A8422
:1012A000DA840020D863212083F8390000BF0020B1
:1012B00083F8380000BF1868C06840F080001C68E0
:1012C000E0600020DEE70220DCE7704700BFFEE7B9
:1012D00010B5084A12783F2A02D10022054B1A7035
:1012E000044B1A78531C034C2370034B03EBC203CB
:1012F00003C310BD1B000020B000002010B505483E
:10130000054908600846FEF7D8FF08B1FEF7D4FF8C
:1013100010BD0000003002400C00002000B585B078
:101320000020019002900390049000BF1D48806946
:1013300040F010001B4988610846806900F01000E9
:10134000009000BF00BF00BF0846806940F0200049
:1013500088610846806900F02000009000BF00BF4F
:1013600000BF0846806940F0040088610846806933
:1013700000F00400009000BF00BF00224FF40051B5
:101380000948FFF7ABF94FF400500190012002909B
:10139000002003900320049001A90348FFF70EF8F2
:1013A00005B000BD001002400010014010B50B4810
:1013B0000B4908604FF4E130486000210848816023
:1013C000C16001610C21416100218161C161FFF7B0
:1013D0008DFE08B1FEF770FF10BD0000003801401F
:1013E0003000002010B50B480B4908604FF4E13085
:1013F0004860002108488160C16001610C214161A1
:1014000000218161C161FFF771FE08B1FEF754FF51
:1014100010BD0000004400407000002000BFFEE747
:101420007047000070B50B4800783F2802D10020BB
:101430000849087007480578681C0649087006487E
:1014400000EBC500D0E900211046FEF79AFEC4B2B9
:10145000204670BD1C000020B00000207047000036
:1014600008B508490968C9084FF47A72B1FBF2F16E
:101470004143009100BF00BF00994A1E009200291D
:10148000F9D108BD2C000020704710B5FFF732F9E4
:1014900010BD00B58FB0282105A8FEF75AFE142113
:1014A0006846FEF756FE02200590012009901020A4
:1014B0000A9000200C9005A8FFF724FB08B1FEF766
:1014C000FBFE0F20009000200190029003900490FA
:1014D00000216846FFF7E0F908B1FEF7EDFE0FB016
:1014E00000BD00001148006840F001000F4908608D
:1014F000084640680E4908400C49486008460068A4
:101500000C490840094908600846006820F480201A
:1015100008600846406820F4FE0048604FF41F0051
:101520008860C8030449086070470000001002404A
:101530000000FFF8FFFFF6FE08ED00E070B505467D
:101540006C6A0020E085E0842046FFF727FD70BD2F
:101550000168C96821F490710268D1600168496925
:1015600021F0010102685161202180F83A10704792
:1015700010B504462068C06820F040002168C860AB
:10158000202084F839002046FFF79FFE002010BD80
:1015900070B5044694F83A0022284AD1A068B0F504
:1015A000805F13D1A56A206940B920684068C0F304
:1015B00008002880A06A801CA06219E020684068AA
:1015C000C0B22880A06A401CA06211E0206938B92E
:1015D00020684068C1B2A26A501CA062117007E086
:1015E0002068406800F07F01A26A501CA062117060
:1015F000E08D401E80B2E085C8B92068C06820F048
:1016000020002168C8602068C06820F480702168CC
:10161000C8602068406920F00100216848612020EE
:1016200084F83A002046FFF723FE002070BD00201A
:10163000FCE70220FAE7000070B50446216809695A
:1016400021F44051E2681143226811612269A168C6
:101650001143626941EA02052168C96841F20C62DE
:10166000914329432268D1602168496921F440717E
:10167000A269114322685161564A2168914254D1AE
:10168000FFF7E6F900EBC00101EB00116268920080
:10169000B1FBF2F100EBC00202EB001263689B00A9
:1016A000B2FBF3F26423B2FBF3F202EBC20303EBEF
:1016B0000212A1EB8201322202EB01116422B1FB82
:1016C000F2F101F0F00100EBC00202EB00126368DE
:1016D0009B00B2FBF3F26423B2FBF3F201EB0212C4
:1016E00000EBC00101EB001163689B00B1FBF3F15B
:1016F00000EBC00303EB00136668B600B3FBF6F320
:101700006426B3FBF6F303EBC30606EB0313A1EB6E
:101710008301322303EB01116423B1FBF3F101F0E8
:101720000F0111442268916053E0FFF781F900EB4B
:10173000C00101EB001162689200B1FBF2F100EB15
:10174000C00202EB001263689B00B2FBF3F2642359
:10175000B2FBF3F202EBC20303EB0212A1EB820134
:10176000322202EB01116422B1FBF2F101F0F0012F
:1017700000EBC00202EB001263689B00B2FBF3F2C5
:101780006423B2FBF3F201EB021200EBC00101EBA8
:10179000001163689B00B1FBF3F100EBC00303EBA6
:1017A00000136668B600B3FBF6F36426B3FBF6F3EA
:1017B00003EBC30606EB0313A1EB8301322303EB18
:1017C00001116423B1FBF3F101F00F011144226810
:1017D000916070BD00380140014691F83900212820
:1017E0002CD18868B0F5805F0FD10A6A1088C0F3E9
:1017F00008000B685860086918B9086A801C0862FC
:1018000009E0086A401C086205E00B6A581C08627F
:1018100018780B685860C88C401E80B2C88458B9CC
:101820000868C06820F080000B68D8600868C0684D
:1018300040F040000B68D860002070470220FCE7B1
:1018400070B52948006800F02000002847D02748DC
:1018500090F9000000280DDD2349091D0868FEF7F6
:1018600083FC0446FFF734FD20480078401E40B258
:101870001E4908701D48007840B91D48007828B1FD
:1018800001201C4908700020194908701A48007886
:10189000AA2813D11448001D00681749087008468B
:1018A000007840B21149087013480078FEF75CFCDC
:1018B0000446FFF70DFD01200D4908700A48001D80
:1018C0000068AA280BD10848001D00680A49087062
:1018D00008460078FEF748FC0446FFF7F9FC074885
:1018E000FFF75EFB70BD0000003801401A000020C9
:1018F00015000020140000201900002030000020F6
:1019000010B50848006800F0200038B10548001DF7
:101910000068054908700120044908700448FFF771
:101920003FFB10BD004400401800002017000020BD
:101930007000002000BFFEE702480068C0F30220EC
:10194000704700000CED00E010B5002804DB0A072A
:10195000130E054A135406E00A07140E034A00F05A
:101960000F031B1FD45410BD00E400E018ED00E08D
:1019700002E008C8121F08C1002AFAD17047704758
:10198000002001E001C1121F002AFBD170470000B6
:1019900030B50246002000230BE012F8015B85EA17
:1019A0002024E4B2044D35F8144084EA0024A0B2A7
:1019B0005B1C8B42F1D330BDD81A0008FEF7A6FE9F
:1019C000FFF767FDFFF7AAFCFFF7F0FCFFF796FCB7
:1019D000FFF708FD1A480068C06840F02000184969
:1019E0000968C8602BE017480078E8B100224FF47E
:1019F00000511548FEF772FE12480078A0B1002091
:101A00001049087000F02AF8044622460F49104891
:101A1000FFF72FFC22460D490948FFF72AFC012257
:101A200051030948FEF75AFE0A48007838B10020F1
:101A300008490870012208490148FFF71AFCD2E75B
:101A4000300000201400002000100140040000209D
:101A50007000002017000020180000202DE9F04140
:101A600000BFFFF7DFFCAA28FBD100240222214699
:101A7000641C18484254FFF7D5FC05462146641CF7
:101A800014484554002708E0FFF7CCFC2146621CAF
:101A9000D4B2104A5054781CC7B2AF42F4DB294686
:101AA0000C48801CFFF774FF064632122046611C6A
:101AB000CCB208490A542046611CCCB205490E54E8
:101AC00003222046611CCCB202490A542046BDE8DC
:101AD000F08100000400002000002110422063304B
:101AE0008440A550C660E770088129914AA16BB176
:101AF0008CC1ADD1CEE1EFF131121002733252221E
:101B0000B5529442F772D662399318837BB35AA3C5
:101B1000BDD39CC3FFF3DEE36224433420040114ED
:101B2000E664C774A44485546AA54BB52885099515
:101B3000EEE5CFF5ACC58DD55336722611163006BD
:101B4000D776F6669556B4465BB77AA71997388765
:101B5000DFF7FEE79DD7BCC7C448E5588668A7787D
:101B60004008611802282338CCC9EDD98EE9AFF9B5
:101B7000488969990AA92BB9F55AD44AB77A966A5D
:101B8000711A500A333A122AFDDBDCCBBFFB9EEB05
:101B9000799B588B3BBB1AABA66C877CE44CC55C2D
:101BA000222C033C600C411CAEED8FFDECCDCDDD55
:101BB0002AAD0BBD688D499D977EB66ED55EF44EFD
:101BC000133E322E511E700E9FFFBEEFDDDFFCCFA5
:101BD0001BBF3AAF599F788F8891A981CAB1EBA1F9
:101BE0000CD12DC14EF16FE18010A100C230E32075
:101BF0000450254046706760B9839893FBA3DAB31D
:101C00003DC31CD37FE35EF3B1029012F322D232C4
:101C10003542145277625672EAB5CBA5A8958985EC
:101C20006EF54FE52CD50DC5E234C324A014810414
:101C30006674476424540544DBA7FAB79987B897BC
:101C40005FE77EF71DC73CD7D326F2369106B01664
:101C500057667676154634564CD96DC90EF92FE97C
:101C6000C899E9898AB9ABA94458654806782768B4
:101C7000C018E1088238A3287DCB5CDB3FEB1EFB5C
:101C8000F98BD89BBBAB9ABB754A545A376A167A04
:101C9000F10AD01AB32A923A2EFD0FED6CDD4DCD2C
:101CA000AABD8BADE89DC98D267C076C645C454C54
:101CB000A23C832CE01CC10C1FEF3EFF5DCF7CDFFC
:101CC0009BAFBABFD98FF89F176E367E554E745EA4
:101CD000932EB23ED10EF01E000000000000000066
:101CE00001020304060708090000000001020304C2
:101CF000101D0008000000203000000070190008CE
:101D0000401D0008300000208006000080190008F7
:101D100000000000000000000000000000000000C3
:101D200000000000000000000000000000000000B3
:101D30000000000010000000010000000024F4007A
:04000005080000ED02
:00000001FF
